:100000000C945E000C9486000C9486000C94860080
:100010000C9486000C9486000C9486000C94860048
:100020000C9486000C9486000C9486000C94860038
:100030000C9486000C9486000C9486000C94860028
:100040000C948A040C9486000C94FA040C94D40446
:100050000C9486000C9486000C9486000C94860008
:100060000C9486000C948600000000080002010039
:100070000003040700000000000000000000000072
:10008000250028002B0000000000240027002A0083
:10009000040404040404040402020202020203032E
:1000A0000303030301020408102040800102040836
:1000B00010200102040810202C053B0711241FBE4C
:1000C000CFEFD8E0DEBFCDBF21E0A8E4B1E001C0B2
:1000D0001D92A83FB207E1F711E0A0E0B1E0E6E928
:1000E000F3E102C005900D92A834B107D9F710E0F2
:1000F000CDE5D0E004C02197FE010E94B207CC35C7
:10010000D107C9F70E9467050C94BE090C94000042
:1001100090E0FC01EC55FF4F249180579F4FFC016C
:100120008491882399F090E0880F991FFC01EA5789
:10013000FF4FA591B491FC01E458FF4F8591949134
:100140008FB7F894EC91E22BEC938FBF089508954C
:1001500090E0FC01E859FF4F2491FC01EC55FF4F62
:100160003491FC01E057FF4FE491EE23C9F02223C4
:1001700039F0233001F1A8F4213019F1223029F1AE
:10018000F0E0EE0FFF1FE458FF4FA591B4918FB739
:10019000F894EC91611126C030953E233C938FBFBB
:1001A00008952730A9F02830C9F0243049F780910C
:1001B00080008F7D03C0809180008F7780938000C6
:1001C000DFCF84B58F7784BDDBCF84B58F7DFBCF48
:1001D0008091B0008F778093B000D2CF8091B00033
:1001E0008F7DF9CF3E2BDACF3FB7F89480914D0148
:1001F00090914E01A0914F01B091500126B5A89B5E
:1002000005C02F3F19F00196A11DB11D3FBFBA2FA8
:10021000A92F982F8827BC01CD01620F711D811D68
:10022000911D42E0660F771F881F991F4A95D1F7ED
:1002300008958F929F92AF92BF92CF92DF92EF92EA
:10024000FF926B017C010E94F4004B015C01C11420
:10025000D104E104F104B9F00E94F40068197909AD
:100260008A099B09683E73408105910580F321E06E
:10027000C21AD108E108F10888EE880E83E0981EC2
:10028000A11CB11CE4CFFF90EF90DF90CF90BF9006
:10029000AF909F908F900895AF92BF92CF92DF92D0
:1002A000EF92FF920F931F93CF93DF936C017B012B
:1002B0008B01040F151FEB015E01AE18BF08C017BC
:1002C000D10759F06991D601ED91FC910190F0812F
:1002D000E02DC6010995892B79F7C501DF91CF91F2
:1002E0001F910F91FF90EF90DF90CF90BF90AF9054
:1002F0000895FC01538D448D252F30E0842F90E02C
:10030000821B930B541710F0CF9608950197089510
:10031000FC01918D828D981761F0A28DAE0FBF2FD9
:10032000B11D5D968C91928D9F5F9F73928F90E02F
:1003300008958FEF9FEF0895FC01918D828D98179E
:1003400031F0828DE80FF11D858D90E008958FEFDB
:100350009FEF0895FC01918D228D892F90E0805CA4
:100360009F4F821B91098F739927089581E591E032
:100370000E94AA0121E0892B09F420E0822F089530
:1003800080E090E0892B29F00E94B60181110C9445
:1003900000000895FC01A48DA80FB92FB11DA35A28
:1003A000BF4F2C91848D90E001968F739927848F95
:1003B000A689B7892C93A089B1898C9183708064B8
:1003C0008C93938D848D981306C00288F389E02D59
:1003D00080818F7D80830895EF92FF920F931F930A
:1003E000CF93DF93EC0181E0888F9B8D8C8D9813E8
:1003F0001AC0E889F989808185FF15C09FB7F894F4
:10040000EE89FF896083E889F9898081837080643F
:1004100080839FBF81E090E0DF91CF911F910F918A
:10042000FF90EF900895F62E0B8D10E00F5F1F4F99
:100430000F731127E02E8C8D8E110CC00FB607FCA8
:10044000FACFE889F989808185FFF5CFCE010E9436
:10045000CA01F1CFEB8DEC0FFD2FF11DE35AFF4FD9
:10046000F0829FB7F8940B8FEA89FB8980818062C4
:10047000CFCFCF93DF93EC01888D8823B9F0AA8981
:10048000BB89E889F9898C9185FD03C0808186FD4F
:100490000DC00FB607FCF7CF8C9185FFF2CF80819E
:1004A00085FFEDCFCE010E94CA01E9CFDF91CF9148
:1004B00008956B012EEEC21A22E0D20A0D2C000C18
:1004C000EE08FF088E5E92404C01990FAA08BB0807
:1004D000C701B6010E94190161E08CE00E94A800EA
:1004E00061E089E00E94A8006EEE72E080E090E09A
:1004F0000E94190160E08DE00E94A80060E08CE09D
:100500000E94A80061E08BE00E94A8006EEE72E0FD
:1005100080E090E00E94190160E089E00E94A8005C
:1005200060E08AE00E94A80061E088E00E94A800E4
:10053000C501B4010E941901CBCF0F931F93CF9334
:10054000DF93EC018B016E5E7240072E000C880B6E
:10055000990B0E94190161E089E00E94A80061E006
:100560008CE00E94A8006EEE72E080E090E00E94B5
:10057000190160E088E00E94A80060E089E00E9424
:10058000A80061E08AE00E94A8006EEE72E080E0C0
:1005900090E00E94190160E08CE00E94A80060E0F9
:1005A0008BE00E94A80061E08DE00E94A800BE01DF
:1005B0000D2E000C880B990B0E941901B801CE0179
:1005C000DF91CF911F910F910C94E6020F931F932F
:1005D000CF93DF93EC018B01BC016E5E7240072E5E
:1005E000000C880B990B0E94190161E08CE00E94BD
:1005F000A80061E089E00E94A8006EEE72E080E051
:1006000090E00E94190160E08DE00E94A80060E087
:100610008CE00E94A80061E08BE00E94A8006EEED2
:1006200072E080E090E00E94190160E089E00E94A1
:10063000A80060E08AE00E94A80061E088E00E94D3
:10064000A800B801012E000C880B990B0E9419011B
:10065000B801CE01DF91CF911F910F910C949D02B3
:1006600042E050E068E171E081E591E00C944C01DA
:10067000FC0180819181009711F00C945408089539
:10068000CF93DF93EC018091EE019091EF01009701
:10069000E9F06881798161157105B1F04091F0014F
:1006A0005091F1012C813D814217530768F00E945F
:1006B000B7098C819D819093F3018093F2011D8293
:1006C0001C82DF91CF9108950E94540888819981FE
:1006D0009093EF018093EE018A819B819093F101C9
:1006E0008093F0018C819D819093F3018093F201BE
:1006F000198218821B821A82E2CFCF93DF938091F6
:10070000F2019091F301892B81F0C091EE01D0911B
:10071000EF0160E270E0CE010E94A309009729F08A
:100720008C1B9D0BDF91CF9108958FEF9FEFFACF38
:10073000FC0180819181009711F00C943F0760E0EB
:1007400070E0CB010895FC0124813581232B39F41D
:1007500021E0FB018081882349F020E007C08081EF
:1007600091810E94AE0921E0892BB9F7822F08956B
:100770000F931F93CF93DF93EC01888199810097AA
:1007800059F02A813B812617370730F081E0DF914D
:10079000CF911F910F9108958B016F5F7F4F0E9442
:1007A000DD08009759F0998388831B830A832C8185
:1007B0003D81232B59F7FC011082E8CF80E0E7CF81
:1007C000EF92FF920F931F93CF93DF93EC017B0186
:1007D0008A01BA010E94B80328813981811114C0AD
:1007E0002115310519F0C9010E9454081982188297
:1007F0001D821C821B821A82CE01DF91CF911F9134
:100800000F91FF90EF9008951D830C83B701C901EC
:100810000E94B709F1CFCF92DF92EF92FF920F9330
:100820001F93CF93DF93EC016B017A0146175707B3
:1008300020F48D2D6A01E62EF82E198218821B8273
:100840001A821D821C8250E040E06AE171E0CE0114
:100850000E94E0030091F2011091F301C016D1064D
:1008600040F5E016F10608F48701E091EE01F09101
:10087000EF01E00FF11FF08010826091EE017091A6
:10088000EF016C0D7D1D61157105E9F0FB01019013
:100890000020E9F73197AF01461B570BCE010E94AC
:1008A000E0038091EE019091EF01080F191FF8010C
:1008B000F082CE01DF91CF911F910F91FF90EF90C9
:1008C000DF90CF90089588819981009711F00E9460
:1008D0005408198218821D821C821B821A82E1CF61
:1008E000FB01DC0111961C921E9213961C921E9223
:1008F000129715961C921E9214978617970749F027
:10090000608171816115710521F0448155810C94DC
:10091000E00308951F920F920FB60F9211242F93A8
:100920003F938F939F93AF93BF9380914901909191
:100930004A01A0914B01B0914C013091480123E054
:10094000230F2D3758F50196A11DB11D20934801A5
:100950008093490190934A01A0934B01B0934C01BD
:1009600080914D0190914E01A0914F01B0915001A5
:100970000196A11DB11D80934D0190934E01A0934E
:100980004F01B0935001BF91AF919F918F913F91D3
:100990002F910F900FBE0F901F90189526E8230FF0
:1009A0000296A11DB11DD2CF1F920F920FB60F92CA
:1009B00011242F933F934F935F936F937F938F9364
:1009C0009F93AF93BF93EF93FF9381E591E00E94D4
:1009D000CA01FF91EF91BF91AF919F918F917F914C
:1009E0006F915F914F913F912F910F900FBE0F909C
:1009F0001F9018951F920F920FB60F9211242F93EC
:100A00008F939F93EF93FF93E0916101F0916201C7
:100A10008081E0916701F091680182FD1BC09081A7
:100A200080916A018F5F8F7320916B01821741F073
:100A3000E0916A01F0E0EF5AFE4F958F80936A01D2
:100A4000FF91EF919F918F912F910F900FBE0F907B
:100A50001F9018958081F4CFE1E5F1E013821282B6
:100A600088EE93E0A0E0B0E084839583A683B7830B
:100A70008AE091E09183808385EC90E0958784877C
:100A800084EC90E09787868780EC90E0918B808B58
:100A900081EC90E0938B828B82EC90E0958B848B41
:100AA00086EC90E0978B868B118E128E138E148EAF
:100AB000EEEEF1E01182108213821282158214820E
:100AC00050E040E06AE171E0CF010C94E003CF9385
:100AD000DF93CDB7DEB7E0970FB6F894DEBF0FBE59
:100AE000CDBF789484B5826084BD84B5816084BDB7
:100AF00085B5826085BD85B5816085BD80916E00BC
:100B0000816080936E0010928100809181008260EC
:100B10008093810080918100816080938100809129
:100B200080008160809380008091B1008460809318
:100B3000B1008091B00081608093B00080917A0014
:100B4000846080937A0080917A00826080937A003A
:100B500080917A00816080937A0080917A00806829
:100B600080937A001092C1008AE00E94880089E098
:100B70000E94880088E00E9488008BE00E94880024
:100B80008CE00E9488008DE00E948800E091610165
:100B9000F091620182E08083E0915D01F0915E015D
:100BA0001082E0915F01F09160018FEC80831092E0
:100BB0006901E0916501F091660186E08083E09132
:100BC0006301F0916401808180618083E091630121
:100BD000F0916401808188608083E0916301F091ED
:100BE0006401808180688083E0916301F0916401F9
:100BF00080818F7D808380E0E82E80E0F82E61E0A8
:100C00008AE00E94A80061E08DE00E94A80081E5D2
:100C100091E00E94AA01892B71F181E591E00E9487
:100C20008801182F8A3291F1682F81E591E00E94A6
:100C3000EC0119831A820091F2011091F3010F5F08
:100C40001F4FB8018EEE91E00E94B803882399F0FF
:100C50002091EE013091EF018091F2019091F3012A
:100C6000BE016F5F7F4F820F931F0E94B7091093E1
:100C7000F3010093F201E114F10409F20E94B601BC
:100C8000882309F4B8CF0E940000B5CF0E9430033A
:100C900044E150E06BE171E081E591E00E944C019C
:100CA0000E9430030E947D038C01AC0170E060E083
:100CB000CE018B960E940B044091F2015091F301FA
:100CC000B8016F5F7F4FCE0101960E940B04CE01E9
:100CD00001960E944003CE0101960E9438030E94B3
:100CE0007D038C01AC0170E060E0CE0185960E942E
:100CF0000B044091F2015091F301B8016F5F7F4FF7
:100D0000CE0101960E940B04CE0101960E94400381
:100D1000CE0101960E9438030E947D038C01AC0134
:100D200070E060E0CE014F960E940B044091F2010A
:100D30005091F301B8016F5F7F4FCE0101960E9481
:100D40000B04CE0101960E944003CE0101960E9441
:100D500038030E947D038C01AC0170E060E0CE019D
:100D600049960E940B044091F2015091F301B801A1
:100D70006F5F7F4FCE0101960E940B04CE0101965A
:100D80000E944003CE0101960E943803BE01655DBA
:100D90007F4FCE0101960E947004BE016B5D7F4FB4
:100DA000CE0107960E947004BE01615E7F4FCE01A6
:100DB0000D960E947004BE01675E7F4FCE01439680
:100DC0000E94700460E371E0CE0101960E94A303CB
:100DD0008823A9F167E371E0CE010D960E94A30379
:100DE000882369F1CE0107960E9498034B01CE013A
:100DF00043960E949803C4010E94E602CE014396E6
:100E00000E943803CE010D960E943803CE0107964A
:100E10000E943803CE0101960E943803CE01499604
:100E20000E943803CE014F960E943803CE0185966A
:100E30000E943803CE018B960E9438031CCF6EE3CC
:100E400071E0CE0101960E94A3038823B9F263E406
:100E500071E0CE010D960E94A303882379F2CE01A2
:100E600007960E9498036B01CE0143960E94980357
:100E7000C6010E9459028EEE91E00C9438031F9334
:100E8000FC0199278827BC01E89411911032E9F3FD
:100E9000193010F01E30C8F31B3251F01D3249F4E6
:100EA000689406C00E946607610F711D811D911D27
:100EB000119110531A30B0F33EF4909580957095CF
:100EC00061957F4F8F4F9F4F1F910895592F482F46
:100ED000372F262F660F771F881F991F660F771FE2
:100EE000881F991F620F731F841F951F660F771F3E
:100EF000881F991F08952F923F924F925F926F9291
:100F00007F928F929F92AF92BF92CF92DF92EF9299
:100F1000FF920F931F93CF93DF93CDB7DEB7CA1B1A
:100F2000DB0B0FB6F894DEBF0FBECDBF09942A8845
:100F3000398848885F846E847D848C849B84AA84ED
:100F4000B984C884DF80EE80FD800C811B81AA817A
:100F5000B981CE0FD11D0FB6F894DEBF0FBECDBF45
:100F6000ED010895EE0FFF1F0590F491E02D099417
:100F70000F931F93CF93DF938230910510F482E09B
:100F800090E0E091F601F091F70130E020E0B0E070
:100F9000A0E0309799F42115310509F44AC0281BC7
:100FA000390B24303105D8F58A819B816115710593
:100FB00089F1FB0193838283FE0111C0408151813D
:100FC0000281138148175907E0F04817590799F42F
:100FD000109761F012960C93129713961C93329609
:100FE000CF01DF91CF911F910F9108950093F601EA
:100FF0001093F701F4CF2115310551F04217530733
:1010000038F0A901DB019A01BD01DF01F801C1CF70
:10101000EF01F9CF9093F7018093F601CDCFFE0158
:10102000E20FF31F81939193225031093983288372
:10103000D7CF2091F4013091F501232B41F4209179
:101040000201309103013093F5012093F4012091C6
:101050000001309101012115310541F42DB73EB752
:101060004091040150910501241B350BE091F401DE
:10107000F091F501E217F307A0F42E1B3F0B2817A0
:10108000390778F0AC014E5F5F4F2417350748F001
:101090004E0F5F1F5093F5014093F401819391939C
:1010A0009FCFF0E0E0E09CCFCF93DF930097E9F093
:1010B000FC01329713821282A091F601B091F701E0
:1010C000ED0130E020E01097A1F420813181820F02
:1010D000931F2091F4013091F5012817390709F089
:1010E00061C0F093F501E093F401DF91CF91089591
:1010F000EA01CE17DF07E8F54A815B819E014115C1
:101100005105B1F7E901FB83EA8349915991C40F75
:10111000D51FEC17FD0761F4808191810296840F41
:10112000951FE90199838883828193819B838A83B8
:10113000F0E0E0E012968D919C9113970097B9F53D
:101140002D913C911197CD010296820F931F209112
:10115000F4013091F5012817390739F6309751F528
:101160001092F7011092F601B093F501A093F401EB
:10117000BCCFD383C28340815181840F951FC81790
:10118000D90761F44E5F5F4F88819981480F591FDD
:10119000518340838A819B8193838283211531050A
:1011A00009F0B0CFF093F701E093F6019ECFFD0177
:1011B000DC01C0CF13821282D7CFB0E0A0E0E3EE13
:1011C000F8E00C947D078C01009751F4CB010E944C
:1011D000B8078C01C801CDB7DEB7E0E10C949907E0
:1011E000FC01E60FF71F9C0122503109E217F307BB
:1011F00008F49DC0D901CD91DC911197C617D7078E
:1012000098F0C530D10530F3CE01049786179707C3
:1012100008F3C61BD70B2297C193D1936D937C9390
:10122000CF010E945408D6CF5B01AC1ABD0A4C0115
:101230008C0E9D1EA091F601B091F701512C412C0E
:10124000F12CE12C109731F58091F4019091F5018A
:101250008815990509F05CC04616570608F058C075
:101260008091000190910101009741F48DB79EB7E4
:101270004091040150910501841B950BE817F90773
:1012800008F055C0F093F501E093F401F901718382
:101290006083A0CF8D919C91119712966C901297BC
:1012A00013967C901397A815B90559F56C0142E087
:1012B000C40ED11CCA14DB0420F1AC014A195B092D
:1012C000DA011296159780F062827382518340830F
:1012D000D9016D937C93E114F10471F0D701139659
:1012E000FC93EE93129776CF22968C0F9D1FF901F7
:1012F00091838083F301EFCFF093F701E093F60140
:1013000069CF4816590608F42C017D01D3019ACF04
:10131000CB010E94B8077C01009749F0AE01B801EB
:101320000E949A09C8010E945408870153CF10E017
:1013300000E050CFFB01DC0102C001900D92415052
:101340005040D8F70895FC018191861721F0882339
:10135000D9F7992708953197CF010895FB01DC0152
:101360008D91019080190110D9F3990B0895FB011B
:10137000DC0101900D920020E1F7089510E0CDE529
:10138000D0E004C0FE010E94B2072196CE35D107FD
:06139000C9F7F894FFCF3D
:101396000000F801800000000000EC014C0179011A
:1013A6003902AA0188019C010D0A00456E74657216
:1013B60020747573756E612062617374696E2E0098
:1013C600477265656E3100477265656E320052651B
:0813D60064310052656432002D
:00000001FF
